{"contracts/Data.sol":{"UserData":{"abi":[{"inputs":[],"stateMutability":"nonpayable","type":"constructor"},{"inputs":[{"internalType":"string","name":"dataHash","type":"string"},{"internalType":"string","name":"fileHash","type":"string"},{"internalType":"string","name":"name","type":"string"}],"name":"createToken","outputs":[],"stateMutability":"payable","type":"function"}],"evm":{"bytecode":{"linkReferences":{},"object":"608060405234801561001057600080fd5b5033600160006101000a81548173ffffffffffffffffffffffffffffffffffffffff021916908373ffffffffffffffffffffffffffffffffffffffff160217905550610856806100616000396000f3fe60806040526004361061001e5760003560e01c806394aed7d014610023575b600080fd5b61003d60048036038101906100389190610409565b61003f565b005b610049600061028b565b600061005560006102a1565b90506000341161009a576040517f08c379a00000000000000000000000000000000000000000000000000000000081526004016100919061050d565b60405180910390fd5b600160009054906101000a900473ffffffffffffffffffffffffffffffffffffffff1673ffffffffffffffffffffffffffffffffffffffff166108fc349081150290604051600060405180830381858888f19350505050158015610102573d6000803e3d6000fd5b5060026040518060c00160405280838152602001600160009054906101000a900473ffffffffffffffffffffffffffffffffffffffff1673ffffffffffffffffffffffffffffffffffffffff1681526020013373ffffffffffffffffffffffffffffffffffffffff1681526020018681526020018581526020018481525090806001815401808255809150506001900390600052602060002090600602016000909190919091506000820151816000015560208201518160010160006101000a81548173ffffffffffffffffffffffffffffffffffffffff021916908373ffffffffffffffffffffffffffffffffffffffff16021790555060408201518160020160006101000a81548173ffffffffffffffffffffffffffffffffffffffff021916908373ffffffffffffffffffffffffffffffffffffffff1602179055506060820151816003019081610256919061074e565b50608082015181600401908161026c919061074e565b5060a0820151816005019081610282919061074e565b50505050505050565b6001816000016000828254019250508190555050565b600081600001549050919050565b6000604051905090565b600080fd5b600080fd5b600080fd5b600080fd5b6000601f19601f8301169050919050565b7f4e487b7100000000000000000000000000000000000000000000000000000000600052604160045260246000fd5b610316826102cd565b810181811067ffffffffffffffff82111715610335576103346102de565b5b80604052505050565b60006103486102af565b9050610354828261030d565b919050565b600067ffffffffffffffff821115610374576103736102de565b5b61037d826102cd565b9050602081019050919050565b82818337600083830152505050565b60006103ac6103a784610359565b61033e565b9050828152602081018484840111156103c8576103c76102c8565b5b6103d384828561038a565b509392505050565b600082601f8301126103f0576103ef6102c3565b5b8135610400848260208601610399565b91505092915050565b600080600060608486031215610422576104216102b9565b5b600084013567ffffffffffffffff8111156104405761043f6102be565b5b61044c868287016103db565b935050602084013567ffffffffffffffff81111561046d5761046c6102be565b5b610479868287016103db565b925050604084013567ffffffffffffffff81111561049a576104996102be565b5b6104a6868287016103db565b9150509250925092565b600082825260208201905092915050565b7f616d6f756e74206d757374206265203e20300000000000000000000000000000600082015250565b60006104f76012836104b0565b9150610502826104c1565b602082019050919050565b60006020820190508181036000830152610526816104ea565b9050919050565b600081519050919050565b7f4e487b7100000000000000000000000000000000000000000000000000000000600052602260045260246000fd5b6000600282049050600182168061057f57607f821691505b60208210810361059257610591610538565b5b50919050565b60008190508160005260206000209050919050565b60006020601f8301049050919050565b600082821b905092915050565b6000600883026105fa7fffffffffffffffffffffffffffffffffffffffffffffffffffffffffffffffff826105bd565b61060486836105bd565b95508019841693508086168417925050509392505050565b6000819050919050565b6000819050919050565b600061064b6106466106418461061c565b610626565b61061c565b9050919050565b6000819050919050565b61066583610630565b61067961067182610652565b8484546105ca565b825550505050565b600090565b61068e610681565b61069981848461065c565b505050565b5b818110156106bd576106b2600082610686565b60018101905061069f565b5050565b601f821115610702576106d381610598565b6106dc846105ad565b810160208510156106eb578190505b6106ff6106f7856105ad565b83018261069e565b50505b505050565b600082821c905092915050565b600061072560001984600802610707565b1980831691505092915050565b600061073e8383610714565b9150826002028217905092915050565b6107578261052d565b67ffffffffffffffff8111156107705761076f6102de565b5b61077a8254610567565b6107858282856106c1565b600060209050601f8311600181146107b857600084156107a6578287015190505b6107b08582610732565b865550610818565b601f1984166107c686610598565b60005b828110156107ee578489015182556001820191506020850194506020810190506107c9565b8683101561080b5784890151610807601f891682610714565b8355505b6001600288020188555050505b50505050505056fea2646970667358221220731dab342fdb8da08d856a6b5332b32f5d6f58f984fc455b2fb2b1d146c7010164736f6c63430008120033","opcodes":"PUSH1 0x80 PUSH1 0x40 MSTORE CALLVALUE DUP1 ISZERO PUSH2 0x10 JUMPI PUSH1 0x0 DUP1 REVERT JUMPDEST POP CALLER PUSH1 0x1 PUSH1 0x0 PUSH2 0x100 EXP DUP2 SLOAD DUP2 PUSH20 0xFFFFFFFFFFFFFFFFFFFFFFFFFFFFFFFFFFFFFFFF MUL NOT AND SWAP1 DUP4 PUSH20 0xFFFFFFFFFFFFFFFFFFFFFFFFFFFFFFFFFFFFFFFF AND MUL OR SWAP1 SSTORE POP PUSH2 0x856 DUP1 PUSH2 0x61 PUSH1 0x0 CODECOPY PUSH1 0x0 RETURN INVALID PUSH1 0x80 PUSH1 0x40 MSTORE PUSH1 0x4 CALLDATASIZE LT PUSH2 0x1E JUMPI PUSH1 0x0 CALLDATALOAD PUSH1 0xE0 SHR DUP1 PUSH4 0x94AED7D0 EQ PUSH2 0x23 JUMPI JUMPDEST PUSH1 0x0 DUP1 REVERT JUMPDEST PUSH2 0x3D PUSH1 0x4 DUP1 CALLDATASIZE SUB DUP2 ADD SWAP1 PUSH2 0x38 SWAP2 SWAP1 PUSH2 0x409 JUMP JUMPDEST PUSH2 0x3F JUMP JUMPDEST STOP JUMPDEST PUSH2 0x49 PUSH1 0x0 PUSH2 0x28B JUMP JUMPDEST PUSH1 0x0 PUSH2 0x55 PUSH1 0x0 PUSH2 0x2A1 JUMP JUMPDEST SWAP1 POP PUSH1 0x0 CALLVALUE GT PUSH2 0x9A JUMPI PUSH1 0x40 MLOAD PUSH32 0x8C379A000000000000000000000000000000000000000000000000000000000 DUP2 MSTORE PUSH1 0x4 ADD PUSH2 0x91 SWAP1 PUSH2 0x50D JUMP JUMPDEST PUSH1 0x40 MLOAD DUP1 SWAP2 SUB SWAP1 REVERT JUMPDEST PUSH1 0x1 PUSH1 0x0 SWAP1 SLOAD SWAP1 PUSH2 0x100 EXP SWAP1 DIV PUSH20 0xFFFFFFFFFFFFFFFFFFFFFFFFFFFFFFFFFFFFFFFF AND PUSH20 0xFFFFFFFFFFFFFFFFFFFFFFFFFFFFFFFFFFFFFFFF AND PUSH2 0x8FC CALLVALUE SWAP1 DUP2 ISZERO MUL SWAP1 PUSH1 0x40 MLOAD PUSH1 0x0 PUSH1 0x40 MLOAD DUP1 DUP4 SUB DUP2 DUP6 DUP9 DUP9 CALL SWAP4 POP POP POP POP ISZERO DUP1 ISZERO PUSH2 0x102 JUMPI RETURNDATASIZE PUSH1 0x0 DUP1 RETURNDATACOPY RETURNDATASIZE PUSH1 0x0 REVERT JUMPDEST POP PUSH1 0x2 PUSH1 0x40 MLOAD DUP1 PUSH1 0xC0 ADD PUSH1 0x40 MSTORE DUP1 DUP4 DUP2 MSTORE PUSH1 0x20 ADD PUSH1 0x1 PUSH1 0x0 SWAP1 SLOAD SWAP1 PUSH2 0x100 EXP SWAP1 DIV PUSH20 0xFFFFFFFFFFFFFFFFFFFFFFFFFFFFFFFFFFFFFFFF AND PUSH20 0xFFFFFFFFFFFFFFFFFFFFFFFFFFFFFFFFFFFFFFFF AND DUP2 MSTORE PUSH1 0x20 ADD CALLER PUSH20 0xFFFFFFFFFFFFFFFFFFFFFFFFFFFFFFFFFFFFFFFF AND DUP2 MSTORE PUSH1 0x20 ADD DUP7 DUP2 MSTORE PUSH1 0x20 ADD DUP6 DUP2 MSTORE PUSH1 0x20 ADD DUP5 DUP2 MSTORE POP SWAP1 DUP1 PUSH1 0x1 DUP2 SLOAD ADD DUP1 DUP3 SSTORE DUP1 SWAP2 POP POP PUSH1 0x1 SWAP1 SUB SWAP1 PUSH1 0x0 MSTORE PUSH1 0x20 PUSH1 0x0 KECCAK256 SWAP1 PUSH1 0x6 MUL ADD PUSH1 0x0 SWAP1 SWAP2 SWAP1 SWAP2 SWAP1 SWAP2 POP PUSH1 0x0 DUP3 ADD MLOAD DUP2 PUSH1 0x0 ADD SSTORE PUSH1 0x20 DUP3 ADD MLOAD DUP2 PUSH1 0x1 ADD PUSH1 0x0 PUSH2 0x100 EXP DUP2 SLOAD DUP2 PUSH20 0xFFFFFFFFFFFFFFFFFFFFFFFFFFFFFFFFFFFFFFFF MUL NOT AND SWAP1 DUP4 PUSH20 0xFFFFFFFFFFFFFFFFFFFFFFFFFFFFFFFFFFFFFFFF AND MUL OR SWAP1 SSTORE POP PUSH1 0x40 DUP3 ADD MLOAD DUP2 PUSH1 0x2 ADD PUSH1 0x0 PUSH2 0x100 EXP DUP2 SLOAD DUP2 PUSH20 0xFFFFFFFFFFFFFFFFFFFFFFFFFFFFFFFFFFFFFFFF MUL NOT AND SWAP1 DUP4 PUSH20 0xFFFFFFFFFFFFFFFFFFFFFFFFFFFFFFFFFFFFFFFF AND MUL OR SWAP1 SSTORE POP PUSH1 0x60 DUP3 ADD MLOAD DUP2 PUSH1 0x3 ADD SWAP1 DUP2 PUSH2 0x256 SWAP2 SWAP1 PUSH2 0x74E JUMP JUMPDEST POP PUSH1 0x80 DUP3 ADD MLOAD DUP2 PUSH1 0x4 ADD SWAP1 DUP2 PUSH2 0x26C SWAP2 SWAP1 PUSH2 0x74E JUMP JUMPDEST POP PUSH1 0xA0 DUP3 ADD MLOAD DUP2 PUSH1 0x5 ADD SWAP1 DUP2 PUSH2 0x282 SWAP2 SWAP1 PUSH2 0x74E JUMP JUMPDEST POP POP POP POP POP POP POP JUMP JUMPDEST PUSH1 0x1 DUP2 PUSH1 0x0 ADD PUSH1 0x0 DUP3 DUP3 SLOAD ADD SWAP3 POP POP DUP2 SWAP1 SSTORE POP POP JUMP JUMPDEST PUSH1 0x0 DUP2 PUSH1 0x0 ADD SLOAD SWAP1 POP SWAP2 SWAP1 POP JUMP JUMPDEST PUSH1 0x0 PUSH1 0x40 MLOAD SWAP1 POP SWAP1 JUMP JUMPDEST PUSH1 0x0 DUP1 REVERT JUMPDEST PUSH1 0x0 DUP1 REVERT JUMPDEST PUSH1 0x0 DUP1 REVERT JUMPDEST PUSH1 0x0 DUP1 REVERT JUMPDEST PUSH1 0x0 PUSH1 0x1F NOT PUSH1 0x1F DUP4 ADD AND SWAP1 POP SWAP2 SWAP1 POP JUMP JUMPDEST PUSH32 0x4E487B7100000000000000000000000000000000000000000000000000000000 PUSH1 0x0 MSTORE PUSH1 0x41 PUSH1 0x4 MSTORE PUSH1 0x24 PUSH1 0x0 REVERT JUMPDEST PUSH2 0x316 DUP3 PUSH2 0x2CD JUMP JUMPDEST DUP2 ADD DUP2 DUP2 LT PUSH8 0xFFFFFFFFFFFFFFFF DUP3 GT OR ISZERO PUSH2 0x335 JUMPI PUSH2 0x334 PUSH2 0x2DE JUMP JUMPDEST JUMPDEST DUP1 PUSH1 0x40 MSTORE POP POP POP JUMP JUMPDEST PUSH1 0x0 PUSH2 0x348 PUSH2 0x2AF JUMP JUMPDEST SWAP1 POP PUSH2 0x354 DUP3 DUP3 PUSH2 0x30D JUMP JUMPDEST SWAP2 SWAP1 POP JUMP JUMPDEST PUSH1 0x0 PUSH8 0xFFFFFFFFFFFFFFFF DUP3 GT ISZERO PUSH2 0x374 JUMPI PUSH2 0x373 PUSH2 0x2DE JUMP JUMPDEST JUMPDEST PUSH2 0x37D DUP3 PUSH2 0x2CD JUMP JUMPDEST SWAP1 POP PUSH1 0x20 DUP2 ADD SWAP1 POP SWAP2 SWAP1 POP JUMP JUMPDEST DUP3 DUP2 DUP4 CALLDATACOPY PUSH1 0x0 DUP4 DUP4 ADD MSTORE POP POP POP JUMP JUMPDEST PUSH1 0x0 PUSH2 0x3AC PUSH2 0x3A7 DUP5 PUSH2 0x359 JUMP JUMPDEST PUSH2 0x33E JUMP JUMPDEST SWAP1 POP DUP3 DUP2 MSTORE PUSH1 0x20 DUP2 ADD DUP5 DUP5 DUP5 ADD GT ISZERO PUSH2 0x3C8 JUMPI PUSH2 0x3C7 PUSH2 0x2C8 JUMP JUMPDEST JUMPDEST PUSH2 0x3D3 DUP5 DUP3 DUP6 PUSH2 0x38A JUMP JUMPDEST POP SWAP4 SWAP3 POP POP POP JUMP JUMPDEST PUSH1 0x0 DUP3 PUSH1 0x1F DUP4 ADD SLT PUSH2 0x3F0 JUMPI PUSH2 0x3EF PUSH2 0x2C3 JUMP JUMPDEST JUMPDEST DUP2 CALLDATALOAD PUSH2 0x400 DUP5 DUP3 PUSH1 0x20 DUP7 ADD PUSH2 0x399 JUMP JUMPDEST SWAP2 POP POP SWAP3 SWAP2 POP POP JUMP JUMPDEST PUSH1 0x0 DUP1 PUSH1 0x0 PUSH1 0x60 DUP5 DUP7 SUB SLT ISZERO PUSH2 0x422 JUMPI PUSH2 0x421 PUSH2 0x2B9 JUMP JUMPDEST JUMPDEST PUSH1 0x0 DUP5 ADD CALLDATALOAD PUSH8 0xFFFFFFFFFFFFFFFF DUP2 GT ISZERO PUSH2 0x440 JUMPI PUSH2 0x43F PUSH2 0x2BE JUMP JUMPDEST JUMPDEST PUSH2 0x44C DUP7 DUP3 DUP8 ADD PUSH2 0x3DB JUMP JUMPDEST SWAP4 POP POP PUSH1 0x20 DUP5 ADD CALLDATALOAD PUSH8 0xFFFFFFFFFFFFFFFF DUP2 GT ISZERO PUSH2 0x46D JUMPI PUSH2 0x46C PUSH2 0x2BE JUMP JUMPDEST JUMPDEST PUSH2 0x479 DUP7 DUP3 DUP8 ADD PUSH2 0x3DB JUMP JUMPDEST SWAP3 POP POP PUSH1 0x40 DUP5 ADD CALLDATALOAD PUSH8 0xFFFFFFFFFFFFFFFF DUP2 GT ISZERO PUSH2 0x49A JUMPI PUSH2 0x499 PUSH2 0x2BE JUMP JUMPDEST JUMPDEST PUSH2 0x4A6 DUP7 DUP3 DUP8 ADD PUSH2 0x3DB JUMP JUMPDEST SWAP2 POP POP SWAP3 POP SWAP3 POP SWAP3 JUMP JUMPDEST PUSH1 0x0 DUP3 DUP3 MSTORE PUSH1 0x20 DUP3 ADD SWAP1 POP SWAP3 SWAP2 POP POP JUMP JUMPDEST PUSH32 0x616D6F756E74206D757374206265203E20300000000000000000000000000000 PUSH1 0x0 DUP3 ADD MSTORE POP JUMP JUMPDEST PUSH1 0x0 PUSH2 0x4F7 PUSH1 0x12 DUP4 PUSH2 0x4B0 JUMP JUMPDEST SWAP2 POP PUSH2 0x502 DUP3 PUSH2 0x4C1 JUMP JUMPDEST PUSH1 0x20 DUP3 ADD SWAP1 POP SWAP2 SWAP1 POP JUMP JUMPDEST PUSH1 0x0 PUSH1 0x20 DUP3 ADD SWAP1 POP DUP2 DUP2 SUB PUSH1 0x0 DUP4 ADD MSTORE PUSH2 0x526 DUP2 PUSH2 0x4EA JUMP JUMPDEST SWAP1 POP SWAP2 SWAP1 POP JUMP JUMPDEST PUSH1 0x0 DUP2 MLOAD SWAP1 POP SWAP2 SWAP1 POP JUMP JUMPDEST PUSH32 0x4E487B7100000000000000000000000000000000000000000000000000000000 PUSH1 0x0 MSTORE PUSH1 0x22 PUSH1 0x4 MSTORE PUSH1 0x24 PUSH1 0x0 REVERT JUMPDEST PUSH1 0x0 PUSH1 0x2 DUP3 DIV SWAP1 POP PUSH1 0x1 DUP3 AND DUP1 PUSH2 0x57F JUMPI PUSH1 0x7F DUP3 AND SWAP2 POP JUMPDEST PUSH1 0x20 DUP3 LT DUP2 SUB PUSH2 0x592 JUMPI PUSH2 0x591 PUSH2 0x538 JUMP JUMPDEST JUMPDEST POP SWAP2 SWAP1 POP JUMP JUMPDEST PUSH1 0x0 DUP2 SWAP1 POP DUP2 PUSH1 0x0 MSTORE PUSH1 0x20 PUSH1 0x0 KECCAK256 SWAP1 POP SWAP2 SWAP1 POP JUMP JUMPDEST PUSH1 0x0 PUSH1 0x20 PUSH1 0x1F DUP4 ADD DIV SWAP1 POP SWAP2 SWAP1 POP JUMP JUMPDEST PUSH1 0x0 DUP3 DUP3 SHL SWAP1 POP SWAP3 SWAP2 POP POP JUMP JUMPDEST PUSH1 0x0 PUSH1 0x8 DUP4 MUL PUSH2 0x5FA PUSH32 0xFFFFFFFFFFFFFFFFFFFFFFFFFFFFFFFFFFFFFFFFFFFFFFFFFFFFFFFFFFFFFFFF DUP3 PUSH2 0x5BD JUMP JUMPDEST PUSH2 0x604 DUP7 DUP4 PUSH2 0x5BD JUMP JUMPDEST SWAP6 POP DUP1 NOT DUP5 AND SWAP4 POP DUP1 DUP7 AND DUP5 OR SWAP3 POP POP POP SWAP4 SWAP3 POP POP POP JUMP JUMPDEST PUSH1 0x0 DUP2 SWAP1 POP SWAP2 SWAP1 POP JUMP JUMPDEST PUSH1 0x0 DUP2 SWAP1 POP SWAP2 SWAP1 POP JUMP JUMPDEST PUSH1 0x0 PUSH2 0x64B PUSH2 0x646 PUSH2 0x641 DUP5 PUSH2 0x61C JUMP JUMPDEST PUSH2 0x626 JUMP JUMPDEST PUSH2 0x61C JUMP JUMPDEST SWAP1 POP SWAP2 SWAP1 POP JUMP JUMPDEST PUSH1 0x0 DUP2 SWAP1 POP SWAP2 SWAP1 POP JUMP JUMPDEST PUSH2 0x665 DUP4 PUSH2 0x630 JUMP JUMPDEST PUSH2 0x679 PUSH2 0x671 DUP3 PUSH2 0x652 JUMP JUMPDEST DUP5 DUP5 SLOAD PUSH2 0x5CA JUMP JUMPDEST DUP3 SSTORE POP POP POP POP JUMP JUMPDEST PUSH1 0x0 SWAP1 JUMP JUMPDEST PUSH2 0x68E PUSH2 0x681 JUMP JUMPDEST PUSH2 0x699 DUP2 DUP5 DUP5 PUSH2 0x65C JUMP JUMPDEST POP POP POP JUMP JUMPDEST JUMPDEST DUP2 DUP2 LT ISZERO PUSH2 0x6BD JUMPI PUSH2 0x6B2 PUSH1 0x0 DUP3 PUSH2 0x686 JUMP JUMPDEST PUSH1 0x1 DUP2 ADD SWAP1 POP PUSH2 0x69F JUMP JUMPDEST POP POP JUMP JUMPDEST PUSH1 0x1F DUP3 GT ISZERO PUSH2 0x702 JUMPI PUSH2 0x6D3 DUP2 PUSH2 0x598 JUMP JUMPDEST PUSH2 0x6DC DUP5 PUSH2 0x5AD JUMP JUMPDEST DUP2 ADD PUSH1 0x20 DUP6 LT ISZERO PUSH2 0x6EB JUMPI DUP2 SWAP1 POP JUMPDEST PUSH2 0x6FF PUSH2 0x6F7 DUP6 PUSH2 0x5AD JUMP JUMPDEST DUP4 ADD DUP3 PUSH2 0x69E JUMP JUMPDEST POP POP JUMPDEST POP POP POP JUMP JUMPDEST PUSH1 0x0 DUP3 DUP3 SHR SWAP1 POP SWAP3 SWAP2 POP POP JUMP JUMPDEST PUSH1 0x0 PUSH2 0x725 PUSH1 0x0 NOT DUP5 PUSH1 0x8 MUL PUSH2 0x707 JUMP JUMPDEST NOT DUP1 DUP4 AND SWAP2 POP POP SWAP3 SWAP2 POP POP JUMP JUMPDEST PUSH1 0x0 PUSH2 0x73E DUP4 DUP4 PUSH2 0x714 JUMP JUMPDEST SWAP2 POP DUP3 PUSH1 0x2 MUL DUP3 OR SWAP1 POP SWAP3 SWAP2 POP POP JUMP JUMPDEST PUSH2 0x757 DUP3 PUSH2 0x52D JUMP JUMPDEST PUSH8 0xFFFFFFFFFFFFFFFF DUP2 GT ISZERO PUSH2 0x770 JUMPI PUSH2 0x76F PUSH2 0x2DE JUMP JUMPDEST JUMPDEST PUSH2 0x77A DUP3 SLOAD PUSH2 0x567 JUMP JUMPDEST PUSH2 0x785 DUP3 DUP3 DUP6 PUSH2 0x6C1 JUMP JUMPDEST PUSH1 0x0 PUSH1 0x20 SWAP1 POP PUSH1 0x1F DUP4 GT PUSH1 0x1 DUP2 EQ PUSH2 0x7B8 JUMPI PUSH1 0x0 DUP5 ISZERO PUSH2 0x7A6 JUMPI DUP3 DUP8 ADD MLOAD SWAP1 POP JUMPDEST PUSH2 0x7B0 DUP6 DUP3 PUSH2 0x732 JUMP JUMPDEST DUP7 SSTORE POP PUSH2 0x818 JUMP JUMPDEST PUSH1 0x1F NOT DUP5 AND PUSH2 0x7C6 DUP7 PUSH2 0x598 JUMP JUMPDEST PUSH1 0x0 JUMPDEST DUP3 DUP2 LT ISZERO PUSH2 0x7EE JUMPI DUP5 DUP10 ADD MLOAD DUP3 SSTORE PUSH1 0x1 DUP3 ADD SWAP2 POP PUSH1 0x20 DUP6 ADD SWAP5 POP PUSH1 0x20 DUP2 ADD SWAP1 POP PUSH2 0x7C9 JUMP JUMPDEST DUP7 DUP4 LT ISZERO PUSH2 0x80B JUMPI DUP5 DUP10 ADD MLOAD PUSH2 0x807 PUSH1 0x1F DUP10 AND DUP3 PUSH2 0x714 JUMP JUMPDEST DUP4 SSTORE POP JUMPDEST PUSH1 0x1 PUSH1 0x2 DUP9 MUL ADD DUP9 SSTORE POP POP POP JUMPDEST POP POP POP POP POP POP JUMP INVALID LOG2 PUSH5 0x6970667358 0x22 SLT KECCAK256 PUSH20 0x1DAB342FDB8DA08D856A6B5332B32F5D6F58F984 0xFC GASLIMIT JUMPDEST 0x2F 0xB2 0xB1 0xD1 CHAINID 0xC7 ADD ADD PUSH5 0x736F6C6343 STOP ADDMOD SLT STOP CALLER "},"methodIdentifiers":{"createToken(string,string,string)":"94aed7d0"}}}}}